:020000040800F2
:10000000183D0020E50B0008A9050008AB05000815
:10001000AF050008B3050008B705000800000000A0
:10002000000000000000000000000000BB05000808
:10003000BD050008000000008FBE00086D09000823
:10004000FF0B0008FF0B0008FF0B0008FF0B000868
:10005000FF0B0008FF0B0008FF0B0008FF0B000858
:10006000FF0B0008FF0B0008FF0B0008FF0B000848
:10007000FF0B0008FF0B0008FF0B0008FF0B000838
:10008000FF0B0008FF0B0008FF0B0008FF0B000828
:10009000FF0B0008FF0B0008FF0B0008FF0B000818
:1000A000FF0B0008FF0B0008FF0B0008FF0B000808
:1000B000FF0B0008FF0B0008FF0B0008FF0B0008F8
:1000C000FF0B0008FF0B0008FF0B0008FF0B0008E8
:1000D000FF0B0008510B0008FF0B0008FF0B000886
:1000E000FF0B0008FF0B0008FF0B0008FF0B0008C8
:1000F000FF0B0008FF0B0008FF0B0008FF0B0008B8
:10010000FF0B0008FF0B0008FF0B0008FF0B0008A7
:10011000FF0B0008FF0B0008FF0B0008FF0B000897
:10012000FF0B0008FF0B0008FF0B0008FF0B000887
:1001300000F002F800F047F80AA090E8000C8244B2
:100140008344AAF10107DA4501D100F03CF8AFF28F
:10015000090EBAE80F0013F0010F18BFFB1A43F0A5
:1001600001031847DCC40000FCC40000103A24BF9F
:1001700078C878C1FAD8520724BF30C830C144BF0C
:1001800004680C607047000000230024002500264E
:10019000103A28BF78C1FBD8520728BF30C148BFEA
:1001A0000B60704766290CF02A80002070471FB54D
:1001B0000BF012F90400002000210BF0B5FEE06006
:1001C0001FBD10B510BD0BF01FFA1146FFF7EFFF72
:1001D00000F033F90BF03DFA03B4FFF7F2FF03BC74
:1001E00000F058FC002456E0CC49CD4800680BF0E4
:1001F000E3FECB49086000BF00BF00BF01F09EFCDA
:10020000044600BF00BFC7480078401CC5490870BD
:1002100000BF00BF204601F095FC00BF00BF00BF3B
:10022000BF4800680BF09CFE05462A460B46BEA060
:100230000AF01CFE00BF00BF00BF01F07FFC0446B7
:1002400000BF00BFB7480078401EB6490870084696
:100250000078A0B9BA480088002809DD00BF00BFB7
:10026000204601F06FFC00BF00BF03F018FF0DE057
:1002700000BF00BF204601F065FC00BF06E000BFE4
:1002800000BF204601F05EFC00BF00BF00BF4FF47E
:10029000FA7000F0D0FBA7E70EB500BF0FE0A94849
:1002A0000068C043A849C1F8940102A800214FF496
:1002B000FA730A46CDE90010084609F0F0FDEEE7B2
:1002C0000EB500BF19E00020A049086002A8002177
:1002D000C8230A46CDE90010084609F0E0FD0120D8
:1002E0009B49C1F8940102A800214FF4FA730A4611
:1002F000CDE90010084609F0D2FDE4E730B58BB037
:100300000446002500BF01F0E1FA0AA807F055FAFB
:100310000AAA0121084603F0DAFA00BF00BF00BFB5
:1003200001F00CFC054600BF00BF7E480078401C71
:100330007C49087000BF00BF284601F003FC00BFE5
:1003400000BF00BF0AA8032100220592CDE90621C3
:100350000890104680210C227E4BCDE90132CDE978
:10036000031004200023AFF2A7027BA100907D4878
:1003700007F0FAFD0AA8032100220592CDE9062123
:100380000890104680210C22774BCDE90132CDE94F
:10039000031005200023AFF2FF0274A100907648FD
:1003A00007F0E2FD0AA8032100220592CDE906210B
:1003B0000890104680210C22704BCDE90132CDE926
:1003C000031006200023AFF2E3126DA100907048E5
:1003D00007F0CAFD0AA96F4809F03BF900BF00BF4A
:1003E00000BF01F0ABFB054600BF00BF4D480078E1
:1003F000401E4C49087008460078A0B95048008853
:10040000002809DD00BF00BF284601F09BFB00BFAC
:1004100000BF03F044FE0DE000BF00BF284601F01E
:1004200091FB00BF06E000BF00BF284601F08AFB39
:1004300000BF00BF00BF0BB030BD8AB0002400F089
:10044000A1FA4FF4A06000F0EDFB4FF4E13000F0B2
:1004500030FB00F0A5F909A803F00AF800BF00BFBF
:1004600000BF01F06BFB044600BF00BF2D480078C1
:10047000401C2C49087000BF00BF204601F062FB01
:1004800000BF00BF00BF09A8032100220592CDE9EB
:100490000621089010464FF4007133223E4BCDE9FF
:1004A0000132CDE9031003200023AFF2AF123BA1CC
:1004B0000090384807F058FD00BF00BF00BF01F0B2
:1004C0003DFB044600BF00BF16480078401E15499A
:1004D000087008460078A0B919480088002809DD8E
:1004E00000BF00BF204601F02DFB00BF00BF03F09E
:1004F000D6FD0DE000BF00BF204601F023FB00BF8A
:1005000006E000BF00BF204601F01CFB00BF00BF9B
:1005100000BF09A803F07BFA00BFFEE70AD7233C1F
:1005200000000020B4000020666C6F61745F6E757F
:100530006DB5C4D6B5CEAA3A20252E34660D0A0074
:10054000780000209401234200002342948121423C
:1005500000802142A00A00206C6564302074617321
:100560006B000000DC090020640D00206C65643124
:10057000207461736B000000A00C00202810002084
:10058000666C6F61742074657374207461736B00A2
:10059000640F002018010020DC01002073746172D8
:1005A00074207461736B0000704700BFFEE700BFEA
:1005B000FEE700BFFEE700BFFEE7704770470000A0
:1005C0000CB50020019000906C48006840F4803029
:1005D0006A49086000BF6948006800F40030009074
:1005E0000198401C0190009818B90198B0F5A06FCF
:1005F000F1D16248006800F4003010B10120009091
:1006000001E0002000900098012843D15C48006878
:1006100040F010005A4908600846006820F00300C6
:1006200008600846006840F00200086053484068CF
:10063000524948600846406848600846406840F4AF
:10064000806048600846406820F47C104860084696
:10065000406840F4E81048600846006840F0807048
:10066000086000BF4548006800F000700028F9D01D
:100670004248406820F0030040494860084640680E
:1006800040F00200486000BF3C48406800F00C00A9
:100690000828F9D10CBD10B5FFF792FF10BD10B5B9
:1006A0003648006840F00100344908600846406858
:1006B00034490840314948600846006832490840DA
:1006C0002E4908600846006820F48020086008462B
:1006D000406820F4FE0048604FF41F008860FFF778
:1006E000DAFF4FF000602949086010BD10B5002105
:1006F00000200022214B5B6803F00C0121B104298A
:1007000006D0082928D107E0214B224C236027E09E
:100710001F4B204C236023E0184B5B6803F47010E0
:10072000164B5B6803F48032022303EB904022B93E
:10073000194B4343174C23600DE0104B5B6803F4E7
:10074000003323B1144B4343124C236003E0104B9E
:100750004343104C236003E00D4B0E4C236000BF5D
:1007600000BF064B5B68C3F303130C4CE15C094B01
:100770001B68CB40074C236010BD000000100240F6
:10078000002002400000FFF8FFFFF6FE08ED00E049
:1007900000127A000400002000093D00080000203B
:1007A0005F48806940F008005D49886108468069BB
:1007B00040F0400088615B48006820F470005949AF
:1007C00008600846006800F44010086055480C3086
:1007D000006840F0200053490C310860524800681E
:1007E00020F47000504908600846006800F440108A
:1007F00008604D480C30006840F020004A490C3138
:10080000086070474648806940F0080044498861A4
:100810004448001D006820F00F004249091D08608F
:100820000846006840F00300086000203F49086067
:1008300070473B48806940F00400394988610846A8
:10084000806940F0400088613948006820F00F005E
:10085000374908600846006800F008000860324820
:100860000068344908403049086008460068324949
:1008700008432D4908602C480C30006840F01C00EB
:1008800029490C310860704710B5044614B10120A5
:100890002A4908702948007858B32948006858B197
:1008A0002748001F006838B125480838006818B18B
:1008B0002448006801281CD10A2000F0BCF8002060
:1008C0001E4908701E48006808B9012010BD1C4868
:1008D000001F006808B90220F8E7194808380068C6
:1008E00008B90320F2E717480068012815D1042051
:1008F000ECE71348006801280FD11148001F006879
:1009000001280AD10E4808380068012805D10D4891
:10091000006810B90120094908700020D6E70000DE
:1009200000100240000C014000180140A08121424B
:1009300000080140FF00F0FF0088080018000020B8
:10094000100123420001214208B5684602F0E4FE8E
:1009500008BD08B5684602F029FF08BD38B5044651
:100960006A460821204609F015FA38BD10B54248FC
:100970000078012805D102F011FE09F097FC02F081
:100980001EFE10BD10B56FF0040000F09AF93B4850
:1009900000683B49B0FBF1F03A49087037480068FD
:1009A0003749B0FBF1F438480068C910B1FBF0F0EA
:1009B0004443354800684FF47A71B1FBF0F0334995
:1009C00008804FF0E020006940F002004FF0E02185
:1009D000086108464461006940F00100086110BDEB
:1009E0002DE9F047074600264FF0E020D0F814909C
:1009F0002448007807FB00F800BFFFF7A5FF4FF081
:100A0000E020856911E04FF0E0208469AC420CD011
:100A1000AC4202D2281B064403E0A9EB04002844A0
:100A200006442546464500D300E0ECE700BFFFF74B
:100A300090FFBDE8F08770B504460F480078A0B17C
:100A40001348007888B911480088844206DB0F48B3
:100A5000008894FBF0F52846FFF780FF0B480088DC
:100A600094FBF0F100FB114084B24FF47A7104FB67
:100A700001F0FFF7B5FF70BD6D00002004000020FD
:100A800000127A001A000020FCC300081C0000209D
:100A90006C000020014600BF704700BF4D4A12881D
:100AA00002F04002002AF9D0C2B24A4B1B1D1A8044
:100AB000704710B586B00446012144F2040000F0EE
:100AC0003FFE444800F0CAFA4FF40070ADF814003D
:100AD00003208DF8160018208DF8170005A93E4850
:100AE00000F06EF94FF48060ADF8140004208DF82A
:100AF000170005A9384800F063F925208DF800009B
:100B000003208DF801008DF8020001208DF803000C
:100B1000684600F08CF801940020ADF80800ADF8AC
:100B20000A00ADF80C00ADF810000C20ADF80E0076
:100B300001A9284800F0D5FA012240F225512548A4
:100B400000F067FB0121234800F057FB06B010BD01
:100B500010B502F023FD40F225511E4800F03EFC86
:100B600010B31C4800F0BAFBC4B21C48008800F463
:100B70000040C8B91948008800F4804060B10A2CD0
:100B800003D000201549088020E01448008840F474
:100B900000401249088019E00D2C06D10F4800884A
:100BA00040F480400D49088010E00C480088C0F3F4
:100BB0000D000B490C5409480088401C0749088067
:100BC00008460088C72801DD0020088002F0F7FCF5
:100BD00010BD000000380140000801402400002042
:100BE000281200200948804709480047FEE7FEE731
:100BF000FEE7FEE7FEE7FEE7FEE7FEE7FEE7FEE7CD
:100C000004480549054A064B704700009F06000846
:100C10003101000818330020183D0020183500204D
:100C20001835002031490143314A1160704770B5D1
:100C3000002100230F22C47804B32D4C246804F44F
:100C4000E064C4F5E064210AC1F10403CA404478B9
:100C500004FA03F18478144021430901254C0678F5
:100C6000A155047804F01F050124AC4005786D11EE
:100C7000AD0005F1E025C5F8004109E0047804F075
:100C80001F050124AC401C4D0678761145F826401E
:100C900070BD1A4A0A400243154B1B1F1A60704769
:100CA00039B1134A121D12680243114B1B1D1A6001
:100CB00006E00F4A121D126882430D4B1B1D1A607D
:100CC0007047042808D14FF0E021096941F0040180
:100CD0004FF0E022116107E04FF0E021096921F0B7
:100CE00004014FF0E0221161704700000000FA0596
:100CF0000CED00E000E400E080E100E080FFFF1F79
:100D000010B50446CC48844208D10121042000F0EB
:100D100031FD0021042000F02DFD46E0C74884424B
:100D200008D10121082000F025FD0021082000F055
:100D300021FD3AE0C248844208D10121102000F090
:100D400019FD0021102000F015FD2EE0BD48844261
:100D500008D10121202000F00DFD0021202000F00D
:100D600009FD22E0B848844208D10121402000F06A
:100D700001FD0021402000F0FDFC16E0B348844254
:100D800008D10121802000F0F5FC0021802000F036
:100D9000F1FC0AE0AE48844207D10121801500F041
:100DA000E9FC0021A01500F0E5FC10BD10B5012103
:100DB000084600F0DFFC0021012000F0DBFC10BD44
:100DC0002DE9F041024600250026002000230024E2
:100DD000002791F803C00CF00F0591F803C00CF048
:100DE000100CBCF1000F03D091F802C04CEA0505CD
:100DF00091F800C0BCF1000F31D0146800202BE046
:100E00004FF0010C0CFA00F3B1F800C00CEA030635
:100E10009E4220D183004FF00F0C0CFA03F7BC4325
:100E200005FA03FC4CEA040491F803C0BCF1280F56
:100E300006D14FF0010C0CFA00FCC2F814C00AE015
:100E400091F803C0BCF1480F05D14FF0010C0CFA2A
:100E500000FCC2F810C0401C0828D1D31460B1F8BF
:100E600000C0BCF1FF0F34DD546800202EE000F11B
:100E7000080C4FF0010808FA0CF3B1F800C00CEAB6
:100E800003069E4221D183004FF00F0C0CFA03F7AA
:100E9000BC4305FA03FC4CEA040491F803C0BCF11E
:100EA000280F05D100F1080C08FA0CF8C2F81480DC
:100EB00091F803C0BCF1480F07D100F1080C4FF0C6
:100EC000010808FA0CF8C2F81080401C0828CED39C
:100ED0005460BDE8F0814FF6FF71018002218170FE
:100EE0000421C17070470246002093680B400BB18B
:100EF000012000E0002070470146886880B27047FA
:100F000002460020D3680B400BB1012000E0002016
:100F100070470146C86880B27047016170474161FF
:100F200070470AB1016100E041617047C1607047DC
:100F30004FF480320A4382618161826182698269F1
:100F4000704702460020434B18684FF680731840E4
:100F500040EA021008433F4B186070473E49C861A1
:100F60007047F0B50A46002300240021002500F058
:100F70000046B6F1004F02D1364EF16901E0354E20
:100F80007168C0F3034583B200F44016B6F5401F04
:100F900008D121F070612F4E766826F070662D4FD3
:100FA0007E6012E000F48016B6F5801F06D103269D
:100FB00006FA05F4A14341F0706106E0460D3601E2
:100FC00003FA06F6B14341F0706122B1460D3601D5
:100FD00003FA06F6314300F00046B6F1004F02D1A5
:100FE0001C4EF16101E01B4E7160F0BD30B5002276
:100FF0008B071C0F0F2303FA04F2164B08338C10D7
:1010000053F824309343134C08348D1044F82530A2
:1010100023468C1053F824308C07240F00FA04F474
:1010200023430C4C08348D1044F8253030BD0A4958
:10103000DC3108607047000000080140000C0140EE
:10104000001001400014014000180140001C014044
:1010500000200140000001400000204210B504467D
:10106000FB48844209D10121880300F083FB002161
:101070004FF4804000F07EFB32E0F648844209D114
:101080000121480400F083FB00214FF4003000F000
:101090007EFB25E0F048844209D10121880400F05C
:1010A00076FB00214FF4802000F071FB18E0EB4844
:1010B000844209D10121C80400F069FB00214FF4EA
:1010C000002000F064FB0BE0E548844208D10121D8
:1010D000080500F05CFB00214FF4801000F057FB86
:1010E00010BD2DE9F04786B005460E460024A24605
:1010F00000BFA1460027B08900B100BF2F462C8A4F
:101100004CF6FF700440F08804432C82AC894EF604
:10111000F3100440B08831890843718908430443BF
:10112000AC81AC8A4FF6FF400440B0890443AC82E6
:1011300001A800F098FAC648874202D1DDF810A055
:1011400001E0DDF80CA0A88900F4004040B10AEBF2
:10115000CA0000EB0A1031684900B0FBF1F807E063
:101160000AEBCA0000EB0A1031688900B0FBF1F805
:101170006420B8FBF0F004012009642101FB108910
:10118000A88900F4004040B1322000EBC900B0FB58
:10119000F1F000F00700044308E0322000EB0910F2
:1011A0006421B0FBF1F000F00F0004432C8106B085
:1011B000BDE8F0874FF41651016000218180C180A5
:1011C00001810C21418100218181704710B50246C7
:1011D0000020108A4FF2FF0318400B884C882343ED
:1011E0008C882343CC8823431843108210BD0021F0
:1011F000018041808180C180704721B1828942F4A1
:101200000052828104E082894DF6FF731A40828188
:101210007047F0B50346002400260025002040F664
:101220006A17B94200D100BF1846C1F3421401F059
:101230001F06012707FA06F5012C01D10C3004E046
:10124000022C01D1103000E014301AB107682F438E
:10125000076002E00768AF430760F0BD1AB1838AF8
:101260000B43838202E0838A8B4383827047028A26
:101270004FF6F0731A400282028A0A4302827047D4
:1012800082894FF2FF731A40828182890A438281E8
:10129000704721B1828942F00202828104E0828992
:1012A0004FF6FD731A4082817047028A4FF6DF7352
:1012B0001A400282028A0A430282704721B1028ADE
:1012C00042F48042028204E0028A4BF6FF731A4025
:1012D00002827047C1F30802828070470146888805
:1012E000C0F308007047818941F001018181704796
:1012F000028BD2B20283028B42EA01220283704740
:10130000028B02F47F420283028B0A4302837047FE
:1013100021B1828A42F02002828204E0828A4FF662
:10132000DF731A408282704721B1828A42F0100234
:10133000828204E0828A4FF6EF731A4082827047FD
:1013400021B1828A42F00802828204E0828A4FF64A
:10135000F7731A408282704721B1828942F40042B9
:10136000828103E08289C2F30E028281704721B13B
:10137000828A42F40062828204E0828A4FF2FF7322
:101380001A4082827047828A4FF6FB731A4082822B
:10139000828A0A438282704721B1828A42F0020225
:1013A000828204E0828A4FF6FD731A40828270477F
:1013B00002460020B1F5007F00D100BF13880B402A
:1013C0000BB1012000E00020704701F40072B2F57B
:1013D000007F00D100BFCA430280704770B502464B
:1013E000002400230025002040F66A16B14200D1F7
:1013F00000BFC1F3421501F01F03012606FA03F3F3
:10140000012D02D19689334006E0022D02D1168AC1
:10141000334001E0968A33400C12012606FA04F4A8
:101420001688344013B10CB1012000E0002070BDDB
:1014300010B50022002340F66A14A14200D100BF7B
:101440000A1201249440A3B2DC43048010BD0000C2
:10145000003801400044004000480040004C00407B
:1014600000500040DF48006840F00100DD4908609E
:1014700008464068DC490840DA4948600846006888
:10148000DA490840D74908600846006820F48020FF
:1014900008600846406820F4FE0048604FF41F00D2
:1014A00088607047CF49096821F48031CD4A1160C6
:1014B0001146096821F480211160B0F5803F03D006
:1014C000B0F5802F0ED106E0C649096841F480319D
:1014D000C44A116007E0C349096841F4A021C14A28
:1014E000116000E000BF00BF704710B50146002248
:1014F000002300204A11012A02D1BA4C236806E0D9
:10150000022A02D1B74C236A01E0B64C636A01F0AB
:101510001F02012494401C400CB1012000E0002077
:1015200010BD38B5002000900024002500BF3120F8
:10153000FFF7DBFF05460098401C00900098B0F5CF
:10154000A06F01D0002DF2D03120FFF7CEFF08B1FF
:10155000012400E00024204638BD01460020A14AB5
:10156000106820F0F80040EAC10010607047A04900
:1015700008607047024600209A4B586820F47C109F
:1015800042EA01031843974B586070479849086630
:10159000704701460020934A506820F0030008433A
:1015A000506070478F48406800F00C00704701465B
:1015B00000208C4A506820F0F000084350607047CB
:1015C00001460020874A506820F4E06008435060DC
:1015D000704701460020834A506820F4605040EA7A
:1015E000C1005060704729B17E4A527A02437D4B58
:1015F0005A7204E07B4A527A82437A4B5A7270479D
:101600007B49D8310860704701460020754A506810
:1016100020F440400843506070470021714A203256
:101620001170704A82F82010012802D004280AD1D3
:1016300004E001216B4A2032117005E00521694A5E
:101640002032117000E000BF00BF70476949086098
:1016500070476449096A0143624A116270476549EB
:1016600044390860704730B500210022002400236F
:101670005C4D6D6805F00C0121B1042905D00829E5
:1016800023D105E05C4D056022E05B4D05601FE065
:10169000544D6D6805F47012524D6D6805F4803438
:1016A000022505EB92421CB9544D554305600BE0F1
:1016B0004C4D6D6805F400351DB1504D5543056026
:1016C00002E04D4D5543056002E04B4D056000BF03
:1016D00000BF444D6D6805F0F0010909484D6B5C91
:1016E0000568DD4045603F4D6D6805F4E061090A1D
:1016F000434D6B5C4568DD4085603A4D6D6805F48F
:101700006051C90A3E4D6B5C4568DD40C560354D92
:101710006D6805F44041890B3A4D6B5CC568B5FBBB
:10172000F3F5056130BD29B12E4A526902432D4BB4
:101730005A6104E02B4A526982432A4B5A6170472E
:1017400029B1284A92690243264B9A6104E0254A4E
:1017500092698243234B9A61704729B1214AD26929
:101760000243204BDA6104E01E4AD26982431D4BDA
:10177000DA61704729B11B4AD2680243194BDA601B
:1017800004E0184AD2688243164BDA60704729B1E8
:10179000144A12690243134B1A6104E0114A126998
:1017A0008243104B1A6170471249403908607047F4
:1017B0000F49C86470470B49C87170470948406AAF
:1017C00040F0807007494862704701460020054A92
:1017D00092680A400AB1012000E0002070470149E8
:1017E00088727047001002400000FFF8FFFFF6FE0D
:1017F000000042428004424200127A0000093D008B
:10180000260000203600002000B585B06846FFF7AE
:101810002AFF019805B000BD10B5FFF7F5FF04469B
:101820001748006840F0807015490860002015498D
:1018300048600846006840F001000860204600F05B
:10184000B6F810BD0F49486870472DE9F047824649
:10185000FFF7DAFF4FF0000980460B4A00234046AD
:10186000494609F08CFA064632460B46504600219E
:1018700009F085FA04460D4620462946BDE8F08762
:10188000FCED00E0001000E040420F0010B5002425
:1018900000BF00BF00F052F9044600BF00BF102196
:1018A000A14800F0D2FA00BF00BF204600F04AF97C
:1018B00000BF00BF10BD10B5FFF7E8FF10BD10B5A9
:1018C00000209A490860FFF7A7FF10BD10B5FFF789
:1018D000F6FFFFF7F0FF10BD00BFFEE770B505464D
:1018E0000C46002614B900BFFFF7F6FF15B90A2011
:1018F000208070BD00BF00BF00F020F9064600BF89
:1019000000BF10228849284600F056FF00BF00BFE4
:10191000304600F017F900BF00BF0020208000BF54
:10192000E7E72DE9F04105460C46002714B900BF52
:10193000FFF7D2FF1DB90A202080BDE8F0811021F9
:10194000284600F021FF0646102E15D200BF00BF2A
:1019500000F0F4F8074600BF00BF10222946724885
:1019600000F02AFF00BF00BF384600F0EBF800BFD0
:1019700000BF0020208002E04FF47A70208000BF7A
:10198000DBE710B5FFF75EFF0446204610BD704749
:1019900000B5014611B900BFFFF79EFF634A10680A
:1019A00008B1002201E04FF4FA620A8000BD5F49ED
:1019B0000860704770B50546284600F0CAF804462E
:1019C000183C204670BD70B50546284600F0C1F8A9
:1019D0000446103C204670BD70B50546284600F010
:1019E000B8F8044600BF204670BD30B502460B462D
:1019F0000024D2F1FF359C4126D24FF6FF74D2F17C
:101A0000FF359C410FD26FF07F44D2F1FF359C41EE
:101A100003D2190E464C605C44E0190C444C645CE3
:101A200004F108003EE0FF24D2F1FF359C4105D2CD
:101A3000190A3F4C645C04F1100033E019463C4C39
:101A4000645C04F118002DE04FF6FF750024AD1A18
:101A50009C4115D26FF07F450024AD1A9C4107D2FE
:101A6000140E44EA0321324C645C04F1200019E0B6
:101A7000140C44EA03412E4C645C04F1280011E08C
:101A80000024D2F1FF059C4107D2140A44EA036105
:101A9000274C645C04F1300004E01146244C645C83
:101AA00004F1380030BD70B504460CB9082070BD93
:101AB000204600F051F805462846F8E770B5044680
:101AC0000CB9102070BD204600F046F805462846A7
:101AD000F8E770B504460CB9202070BD204600F030
:101AE0003BF805462846F8E72DE9F04304460D4645
:101AF000002184EA01006940084302D14020BDE88A
:101B0000F083E243E843521C40F1000102EA04067C
:101B100001EA050730463946FFF767FF8046C8F1FE
:101B20003F094846EBE70000F01200203C0000208F
:101B300004C2000872B6704762B67047EFF31080B7
:101B400072B6704780F31088704730BF704720BF6F
:101B50007047B0FA80F0704790FAA0F0B0FA80F0C9
:101B6000704790FAA0F070470146412903DB5A29DB
:101B700001DC012200E00022012A08D0612903DBF8
:101B80007A2901DC012200E00022012A01D1012290
:101B900000E00022104670470146412903DB5A2924
:101BA00001DC012200E00022012A08D0612903DBC8
:101BB0007A2901DC012200E00022012A01D1012260
:101BC00000E00022012A08D0302903DB392901DC9A
:101BD000012200E00022012A01D1012200E00022BE
:101BE000104670470146612903DB7A2901DC012296
:101BF00000E00022104670470146412903DB5A29C4
:101C000001DC012200E00022104670470146302925
:101C100003DB392901DC012200E000221046704775
:101C20000146302903DB372901DC012200E00022D4
:101C3000104670470146302901DB392907DD41296B
:101C400001DB462903DD612903DB662901DC012272
:101C500000E00022104670470146202901D00929E2
:101C600001D1012200E000221046704701462029E0
:101C700009D00D2907D00A2905D00C2903D009293C
:101C800001D00B2901D1012200E00022104670474B
:101C90000146202903DB7E2901DC012200E000222D
:101CA000104670470146212903DB7E2901DC012211
:101CB00000E00022104670470146202903DB7E2900
:101CC00001DC012200E00022012A35D1202909D0BF
:101CD0000D2907D00A2905D00C2903D0092901D0E4
:101CE0000B2901D1012200E000222ABB412903DB9C
:101CF0005A2901DC012200E00022012A08D06129D2
:101D000003DB7A2901DC012200E00022012A01D153
:101D1000012200E00022012A08D0302903DB392902
:101D200001DC012200E00022012A01D1012200E0B1
:101D300000220AB9012200E0002210467047014645
:101D40004AB2002A01DB1F2901DD7F2901D10122CE
:101D500000E00022104670470146412903DB5A2962
:101D600001DC012200E00022012A02D101F120025F
:101D700000E00A46D0B270470146612903DB7A29A8
:101D800001DC012200E00022012A02D1A1F120029F
:101D900000E00A46D0B27047F0B504460B46204634
:101DA000FFF7EAFF05461846FFF7E6FF0646B5428D
:101DB00001D1012000E0002007463846F0BD0000B8
:101DC000FC48FD4901600146416000218160C1601D
:101DD000016141618161C16101620163C16241626E
:101DE000F6498163C1634FF4806101644164014637
:101DF000F34A116070472DE9F04105460B469446C1
:101E00000027002402E03F021F43641C042CFAD385
:101E1000604605F00306294646B1344603E001F862
:101E2000013B401E641C08B1042CF8D30A4601E0B3
:101E300080C2001F0428FBD2114602E001F8013BDA
:101E4000401E0028FAD1BDE8F08130B505460C46A9
:101E5000224600212846FFF7CEFF30BD2DE9F04F86
:101E600085B007468846914646463D46AE4207D96C
:101E70004A464146384601F01DF905B0BDE8F08FED
:101E80004C4607EB0900451E08EB0900461EA81B3F
:101E900004900498042834D305F00300029006F05F
:101EA00003010191DDE90110884201D1012000E028
:101EB000002000900098012823D10298032810D018
:101EC000029840B2039008E016F8010905F80109EC
:101ED000641E0398401E40B2039014B1039800287A
:101EE000F2DAA5F1030AA6F1030B04E05BF804099A
:101EF0004AF80409241F042CF8D20AF103050BF157
:101F0000030604E016F8010905F80109641E002C17
:101F1000F8D100BFB1E72DE9F84F80468946154654
:101F200015B90120BDE8F88FB8F1000F01D10020EC
:101F3000F8E7B9F1000F01D10020F3E701242946A9
:101F400008EB050209EB050302F0030C03F0030B99
:101F5000DC4501D1012000E000200090009801281C
:101F600029D1BCF1000F12D0E2460AE0521E5B1EDE
:101F7000107893F800E0704500D00024491EAAF1C3
:101F8000010A012C03D111B1BAF1000FEED1012CDD
:101F900011D116461F4608E0361F3F1F3068D7F89C
:101FA00000E0704500D00024091F012C01D1042954
:101FB000F2D232463B4608E0521E5B1E107893F880
:101FC00000E0704500D00024491E012C01D10029F9
:101FD000F2D12046A6E7F0B503460E461546D96B6A
:101FE000B1FBF5F005FB101CBCF1000F02D0A5EB16
:101FF0000C0200E000229419586CA04201D200208B
:10200000F0BD0F191144DF63586C001B586408467B
:10201000F6E72DE9F04106460F46B6FBF3FC03FB5D
:102020001C6109B15C1A00E00024B2FBF3FC03FB65
:102030001C2109B15D1A00E0002502EB0508A7F19B
:10204000010C08FB0C4C0CEB0200BDE8F0812DE903
:10205000FE4F8046894614461E46002000900CB96B
:1020600001AC00BF00202060524F00BF00BFFFF74F
:1020700065FD009000BF00BFF86B0290D7F844B038
:102080004B46424601210298FFF7C3FF05465D45D6
:102090000FD900BF00BF0098FFF754FD00BF00BF7D
:1020A000A5EB0B00206042F2E27030800020BDE81A
:1020B000FE8F4A4641463846FFF78DFF8246BAF109
:1020C000000F0CD100BF00BF0098FFF73BFD00BF21
:1020D00000BF256042F2E27030800020E7E700BFD9
:1020E00000BF0098FFF72EFD00BF00BF42F2107046
:1020F00030805046DBE72DE9FC5F07460C469046F2
:102100000020009000BF00BFFFF718FD009000BF47
:1021100000BFD7F80490D9F8380008B1484600E06D
:1021200024488246DAF84450DAF83CB000BF00BFD9
:102130000098FFF707FD00BF00BF012C0AD9BBFBC9
:10214000F4F004FB10B60EB1A01B00E000200190DB
:1021500001982D1A42F21070A8F800002846BDE838
:10216000FC9F70B504460D462A4621461148FFF7EC
:10217000C2FF0646304670BD18B942F211720A809D
:102180007047104A0260002242608260C2600261B1
:1021900042618261C2610262826242630263C26220
:1021A00042628263C2630264426442F210720A8035
:1021B00000BFE5E7001300204845415048130020C8
:1021C000400000204E4F4E452DE9FF4F91B0044690
:1021D000DDE9208900200090B8F1000F02D10DF157
:1021E000180800BF0020C8F8000049462046FFF745
:1021F000C3FFB9F8000042F21071884202D015B056
:10220000BDE8F08FFE48006820B942F2E770A9F8F7
:102210000000F4E7DFF8ECA30020059000BF00BF4A
:10222000FFF78CFC009000BF00BF129880BB5546A2
:10223000AB462E46DAF83C000D9004231A4614995A
:102240000D98FFF7E6FE049004990D9808440C9051
:10225000DDE91E2314990C98FFF7DBFE0390DDE9FE
:10226000030108440590DAF844700598B8427DD916
:1022700000BF00BF0098FFF765FC00BF00BF0598D6
:10228000C01BC8F8000042F2E270A9F80000B6E7EF
:10229000FFE712980B90DDE912010844401E0A90F6
:1022A0000025AB46D64806683BE0B16B12988142E8
:1022B00005D1316C1398814201D1354633E0B06BC2
:1022C0000990316CB06B0844401E0890DDE90901AB
:1022D000814200D227E009990B98884203D8DDE9B2
:1022E000091088420FD209990B98884203D30899A4
:1022F0000A98884207D908990B9888420FD80899FC
:102300000A9888420BD300BF00BF0098FFF71AFC61
:1023100000BF00BF42F27F70A9F800006FE7B3462C
:10232000F668002EC1D100BF45B925461298A063BA
:102330001298E0631398206413986064DAF83C0004
:102340000D9004231A4614990D98FFF762FE04902D
:10235000DAF844700498B84211D900BF00BF009861
:10236000FFF7F0FB00BF00BF049800E024E0C01BB3
:10237000C8F8000042F2E270A9F800003FE7E86BFD
:102380000C90DDE91E2314990C98FFF742FE039090
:102390006F6C0398B8420FD900BF00BF0098FFF7D9
:1023A000D1FB00BF00BF0398C01BC8F8000042F279
:1023B000D870A9F8000022E7149880000290042247
:1023C00050460299FFF707FE0F900F9830BBDAF8DE
:1023D000447000BF00BF0098FFF7B4FB00BF00BF10
:1023E000129858B90598B84204D90598C01BC8F886
:1023F00000000EE00598C8F800000AE00298B84214
:1024000004D90298C01BC8F8000002E00298C8F87E
:10241000000042F2E270A9F80000F0E6002001900E
:1024200034E02846DDE91E12FFF7D5FD0E900E9828
:1024300020BBE86B0C906F6C00BF00BF0098FFF7EB
:1024400081FB00BF00BF01991498401A0790DDE995
:102450001E2307990C98FFF7DCFD05900598B842FC
:1024600004D90598C01BC8F8000002E00598C8F818
:10247000000042F2D870A9F80000C0E6019ADDE938
:102480000E0141F822000198401C01901499019816
:102490008842C6D3A5420DD1C4F808B0E660BBF1AE
:1024A000000F02D0CBF80C4001E0554804605EB14B
:1024B000B46009E0686910902561109860616C61F2
:1024C000109808B1109804614F48206065600C981E
:1024D000A06103990C980844401EE0610F982062A7
:1024E0000398A0621F9860631E9820631498E062AE
:1024F0001498606200BF00BF0098FFF723FB00BF85
:1025000000BF42F21070A9F8000000BF77E62DE985
:10251000F04104460D46002700BF00BFFFF70EFB49
:10252000074600BF00BF666A00BF00BF3846FFF71E
:1025300009FB00BF00BF42F2107028803046BDE8A2
:10254000F0812DE9F041044688461546002700BF7A
:1025500000BFFFF7F3FA074600BF00BF606A60B92B
:1025600000BF00BF3846FFF7EDFA00BF00BF42F2E0
:10257000DE7028800020BDE8F081E16A606A884250
:102580000BD900BF00BF3846FFF7DCFA00BF00BF21
:1025900042F2957028800020EDE7606A401E60627C
:1025A000D4E9080150F8216000BF00BF3846FFF7AA
:1025B000C9FA00BF00BF42F2107028803046DAE747
:1025C0002DE9F04704460F4615464FF0000900BFBD
:1025D00000BFFFF7B3FA814600BF00BFE06AC01B2F
:1025E000461EE06AB04213D800BF00BF4846FFF75E
:1025F000A9FA00BF00BF42F295702880002005E0D4
:102600004000002000130020504F4F4CBDE8F087E1
:10261000606AB0420BD900BF00BF4846FFF792FA8C
:1026200000BF00BF42F2957028800020E7E7206AD3
:1026300050F8268000BF00BF4846FFF783FA00BF6E
:1026400000BF42F2107028804046D8E72DE9F047DD
:1026500004460E4617464FF0000A00BF00BFFFF7C2
:102660006DFA824600BF00BFE16A606A88420BD300
:1026700000BF00BF5046FFF765FA00BF00BF42F23F
:10268000DD703880BDE8F0874FF00008656A08E02B
:10269000206A50F82590B14502D14FF0010803E0BF
:1026A0006D1CE06AA842F3D800BFB8F1010F06D153
:1026B000D4E9080150F82100216A41F82500D4E945
:1026C000080140F82160606A401C606200BF00BFE2
:1026D0005046FFF737FA00BF00BF42F21070388053
:1026E00000BFCFE72DE9F84F04460F4616460020FD
:1026F00000904FF0FF3B00BF00BFFFF71FFA0090B4
:1027000000BF00BFE16A606A88420CD300BF00BF0F
:102710000098FFF717FA00BF00BF42F2DD7030806B
:102720005846BDE8F88F4FF00009656A08E0206A56
:1027300050F82580B84502D14FF0010903E06D1C27
:10274000E06AA842F3D800BFB9F1010F0FD1E06AE7
:10275000401EA0EB050A00BF00BF0098FFF7F2F98A
:1027600000BF00BF42F2107030805046D9E700BF72
:1027700000BF0098FFF7E6F900BF00BF42F2887083
:1027800030805846CDE7000010B502460B46114692
:10279000002001E0491C401C19B10C780CB1984292
:1027A000F8D310BD30B504464FF0FF312046FFF797
:1027B000EBFF0546284630BD70B504460D4616466B
:1027C0000CB9002070BD0DB90020FBE721462A4658
:1027D000002304E010780870491C521C5B1C21B1D6
:1027E0001AB1107808B1B342F4D301B10AB900208C
:1027F000E8E7B34201D2002008702046E2E770B556
:1028000004460D464FF0FF3229462046FFF7D4FF1D
:102810000646304670BD70B503460C4615460BB9EA
:10282000002070BD0CB90020FBE70DB91846F8E791
:10283000194600E0491C11B108780028FAD109B9FD
:102840000020EEE72246002604E010780870491CBC
:10285000521C761C21B11AB1107808B1AE42F4D3E3
:1028600001B10AB90020DCE7002008701846D8E75B
:1028700070B504460D464FF0FF3229462046FFF75B
:10288000CAFF0646304670BD2DE9F04305460B46AB
:102890009446BCF1000F02D10020BDE8F08335B9A9
:1028A0000BB90020F9E7187842421046F5E713B952
:1028B0002A781046F1E729461C460F4626467F1C1B
:1028C000761C4FF0000805E0491C641C7F1C761C38
:1028D00008F10108087894F80090484505D1087877
:1028E00018B117B10EB1E045EED3E04501D100209B
:1028F000D3E7087894F80090484505D0087894F814
:102900000090A0EB09020BE0087808B9002207E06C
:102910002FB90EB9002203E03078424200E03A7845
:102920001046BAE770B504460D464FF0FF3229460F
:102930002046FFF7A9FF0646304670BD2DE9F74F48
:1029400082B080460E46049818B9002005B0BDE854
:10295000F08FB8F1000F09D10EB90020F6E73078FA
:10296000FFF7FAF907467C422046EFE73EB998F8B0
:102970000000FFF7F1F905462C462046E6E7C14680
:10298000B246C846C3465646CDF804A0D8460BF119
:10299000010B019E701C0190C84699F80000FFF7DA
:1029A000DBF9054656469AF80000FFF7D5F90746C9
:1029B0000020009015E009F101090AF1010A0BF16C
:1029C000010B0198401C01900098401C009099F860
:1029D0000000FFF7C1F905469AF80000FFF7BCF9BF
:1029E0000746BD420BD199F8000040B1BBF1000F82
:1029F00005D0019818B1049900988842DBD3049956
:102A00000098884201D10020A0E7BD4201D0EC1B14
:102A100016E00DB9002413E0BBF1000F0AD10198B4
:102A200008B900240CE001990878FFF795F90746EA
:102A30007C4205E09BF80000FFF78EF905462C4626
:102A4000204683E770B504460D464FF0FF32294615
:102A50002046FFF773FF0646304670BD30B504468A
:102A60000B4615460CB9002030BD0BB90020FBE722
:102A70002146002201E0491C521C31B1087820B1E6
:102A80000878A84201D09A42F5D309B90020EBE7B3
:102A90009A4201D30020E7E70878A84201D000203D
:102AA000E2E70846E0E770B505460C4622464FF0DF
:102AB000FF312846FFF7D2FF0646304670BD2DE9AC
:102AC000F04305460E46174615B90020BDE8F083D1
:102AD0000EB90020FAE72C46A6F101094946204626
:102AE000FFF752FE804644440CB90020EEE700E0B8
:102AF000641EAC4202D02078B842F9D12078B842A6
:102B000001D00020E2E72046E0E770B505460C461C
:102B100022464FF0FF312846FFF7D1FF06463046E8
:102B200070BD70B504460D4616460CB9002070BD48
:102B30000BB90020FBE721461A4605E00878A842B9
:102B400000D10E70491C521E19B1087808B1002A34
:102B5000F4D12046EBE7F0B504460D4616464FF09B
:102B6000FF33324629462046FFF7DBFF074638464B
:102B7000F0BD2DE9FF4F06460F4615461EB9002051
:102B800004B0BDE8F08F0FB90020F9E70DB90020BF
:102B9000F6E7681C00B101E04FF0FF3003902946D2
:102BA0003046FFF7F1FD804638460399FFF7ECFD0C
:102BB00004460CB93046E3E7444501D90020DFE77D
:102BC00006EB080BBBF1000F01D10020D8E707EBA3
:102BD000040BBBF1000F01D10020D1E7A8EB0400EA
:102BE00002904FF000090020019000BF06EB0900A1
:102BF0000090224639460098FFF746FE8246BAF119
:102C0000000F01D1012000E00020019009F101092D
:102C1000019810B902988145E8D9BAF1000F01D0A6
:102C20000020ADE70098ABE770B504460D464FF0C5
:102C3000FF3229462046FFF79CFF0646304670BD0E
:102C40002DE9FF4F8DB00F4615461A9E1D9818B9F5
:102C5000002011B0BDE8F08F002003900490012FF8
:102C600001DA01200390022D01D3242D01D9012086
:102C7000039096B33046FFF70BF8029002980128B4
:102C800002D00120039028E0302E26D0A6F130009B
:102C9000C0B207901B98012804D0A6F14100C0B231
:102CA000069003E0A6F16100C0B206900A2D02D89A
:102CB0000798A84209DB0A2D09D907980A2804D3E6
:102CC000A5F10A000699884201D9012000E0002000
:102CD00005900598012800D103901D9C03980028B9
:102CE00046D1DDF834A0DDF834A0CDF830A00120C5
:102CF0000B9007E00B98401CC0B20B900C98B0FBF7
:102D0000F5F00C900C98A842F4D21098012800D14C
:102D100000E0002009900B9909980844B84225DC8E
:102D2000002001900B98B84201DA0B9800E0384679
:102D30000A903EB1B8460A98391A0998081AC0B2E2
:102D4000089006E0DDE90910084400F0FF080020C3
:102D500008900898002806DD302E01D1012000E0FF
:102D60000020049004E00020049001E00120039082
:102D7000039800B1B84644441C9808B10020207064
:102D8000641E4FF0000941E00398A8BBBAF1000FA0
:102D900002D1B9F1000F1CD1BAFBF5F005FB10A070
:102DA00000F0FF0BBBF10A0F04D20BF1300004F866
:102DB00001090BE01B98012804D00BF1370004F83F
:102DC000010903E00BF1570004F80109BAFBF5FA19
:102DD0001AE01098012810D1049808B9019828B178
:102DE000049850B1A8F10100484506D12D2004F8FF
:102DF00001090120019007E003E02EB104F8016908
:102E000002E03F2004F8010909F10109C145BBD3E3
:102E1000039808B100201CE71D981AE72DE9FF5F11
:102E200005460E4617461C46DDE90F9ADDF8388048
:102E300000233A46314628468DE81007FFF700FF89
:102E40008346584604B0BDE8F09F2DE9FF4F85B09A
:102E5000044689461F46DDE913AB002C02DA6542C1
:102E6000012601E02546002612983346CDE902AB43
:102E7000CDE9007049462846079AFFF7E1FE8046F3
:102E8000404609B0BDE8F08F2DE9FF4F8BB00646F4
:102E900089461546B9F1000F02D10DF1240900BF92
:102EA000C9F80060189810B907A8189000BF002151
:102EB000189801701EB900200FB0BDE8F08F012DE9
:102EC00001D0242D01D90020F6E734462078FEF702
:102ED000CDFE039004E0641C2078FEF7C7FE03904B
:102EE00003980128F7D020782B2802D02D280BD169
:102EF00003E0641C4FF0000B09E00E98012800D19C
:102F0000641C4FF0010B02E04FF0000B00BF00BF4C
:102F10000A9425B1082D1CD0102D36D11EE0207842
:102F2000302814D1641C2078582802D078280BD17E
:102F300000BF102567783846FEF77CFE8246BAF15E
:102F4000010F00D1641C01E0082500BF00E00A2544
:102F50001CE02078302800D1641C17E0207830284D
:102F600012D1641C2078582802D078280AD100BFDA
:102F700067783846FEF75EFE8246BAF1010F00D14F
:102F8000641C00E000BF00BF00E000BF00BF4FF0C6
:102F9000000800200290019040E027783846FEF7B4
:102FA000FBFD05900598012836D13846FEF72EFE28
:102FB00006900698012804D1A7F13000C0B208900D
:102FC0000FE03846FEF70EFE04900498012804D165
:102FD000A7F15700C0B2089003E0A7F13700C0B2D4
:102FE00008900898A84214DA029880B9304850F83E
:102FF0002500404509D308FB05F808988044089847
:10300000804504D20120029001E001200290641C5E
:1030100004E00120019001E00120019001980028C6
:10302000BBD00298012801D14FF0FF380A988442A2
:1030300002D0C9F8004001E0C9F80060189880F893
:1030400000B0404638E7F8B504460D461646002065
:1030500003463246294600902046FFF715FF0746F3
:103060003846F8BD2DE9FC4105460E46174601A835
:1030700001233A46314600902846FFF705FF0446F3
:103080009DF8040040B9B4F1004F02D36FF0004046
:1030900000E02046804607E0B4F1004F02D34FF035
:1030A000004000E0604280464046BDE8FC810000F0
:1030B00008C30008002800D17047002900D17047DC
:1030C000002A00D170472DE9F81F00F0030301F03A
:1030D0000304A34211D1C3F1040303F00303012B42
:1030E0001DD3012A00D2F2E011F8014B00F8014B88
:1030F000A3F10103A2F10102F1E700F0010301F0E5
:103100000104A34200D094E0012B44D311F8014BF9
:1031100000F8014BA3F10103A2F10102F4E7B2F5BB
:10312000B47F26D3B1E8F81FA0E8F81FB1E8F81F74
:10313000A0E8F81FB1E8F81FA0E8F81FB1E8F81FF1
:10314000A0E8F81FB1E8F81FA0E8F81FB1E8F81FE1
:10315000A0E8F81FB1E8F81FA0E8F81FB1E8F81FD1
:10316000A0E8F81FB1E8F81FA0E8F81FA2F5B472B4
:10317000D5E7282A06D3B1E8F81FA0E8F81FA2F186
:103180002802F6E7042A06D351F8043B40F8043B32
:10319000A2F10402F6E7202A42D331F8023B20F8DC
:1031A000023B31F8023B20F8023B31F8023B20F8A9
:1031B000023B31F8023B20F8023B31F8023B20F899
:1031C000023B31F8023B20F8023B31F8023B20F889
:1031D000023B31F8023B20F8023B31F8023B20F879
:1031E000023B31F8023B20F8023B31F8023B20F869
:1031F000023B31F8023B20F8023B31F8023B20F859
:10320000023B31F8023B20F8023B31F8023B20F848
:10321000023B31F8023B20F8023BA2F12002BAE760
:10322000022A06D331F8023B20F8023BA2F1020247
:10323000F6E7102A42D311F8013B00F8013B11F8E0
:10324000013B00F8013B11F8013B00F8013B11F88C
:10325000013B00F8013B11F8013B00F8013B11F87C
:10326000013B00F8013B11F8013B00F8013B11F86C
:10327000013B00F8013B11F8013B00F8013B11F85C
:10328000013B00F8013B11F8013B00F8013B11F84C
:10329000013B00F8013B11F8013B00F8013B11F83C
:1032A000013B00F8013B11F8013B00F8013B11F82C
:1032B000013B00F8013BA2F11002BAE7012A06D354
:1032C00011F8013B00F8013BA2F10102F6E7BDE86D
:1032D000F81F7047154816481648174817481848E9
:1032E0001848194819481A481A481B481B481C48CE
:1032F0001C481D481D481E481E481F481F4820489E
:10330000204821482148224822482348234824486D
:10331000244825482548264826482748274828483D
:1033200028482948294800BF704700003CC40008CD
:103330009CC30008A0C30008A4C30008A8C30008D9
:10334000ACC30008B0C30008B4C30008B8C3000889
:10335000BCC30008C0C30008C4C30008C8C3000839
:10336000CCC30008D0C30008D4C30008D8C30008E9
:10337000DCC30008E0C30008E4C30008E8C3000899
:10338000ECC30008F0C30008F4C30008F8C3000849
:10339000FCC3000800C4000804C4000808C40008F6
:1033A0000CC4000810C4000814C4000818C40008A5
:1033B0001CC4000820C4000824C4000828C4000855
:1033C0002CC4000830C4000834C4000838C4000805
:1033D000002400BF19E000BF00BFFEF7AFFB0446AA
:1033E00000BF00BFF7480068401CF6490860F64877
:1033F0000068401CF449086000BF00BF2046FEF78B
:10340000A1FB00BF00BF07F083FBE4E710B58AB063
:1034100004460020EB4908600B2000210591CDE90E
:10342000070406910846E9490968E94A1268E94B28
:103430001B68CDE90132CDE903103F200023AFF234
:103440006F02E5A10090E94804F08EFD0AB010BDBE
:1034500000210AE001EB4102E54B03EB8200002270
:103460000281026042604A1CD1B24029F2D3704707
:1034700070B5044607F054FB0020DE490870DE49B1
:103480000870DE490870DE490860DE490860DE49E0
:103490000870DE490870DE490870DE490860DE49C0
:1034A0000860DE490860DE490870DE4800680A21CD
:1034B000B0FBF1F0DC490860DC48006858B1DC483A
:1034C000056845B1D948066803E0761E00202860EB
:1034D0002D1D002EF9D10020D6490860D64908607C
:1034E000D6490860D6490860D6490860D6490860C0
:1034F000D6490860D649087003F016F8FFF7A8FF10
:10350000204601F03FFE208800B170BD204602F049
:103510007AF9208800B1F8E7204602F0A0F9208867
:1035200000B1F2E7204602F0E7FF208800B1ECE7A7
:10353000204603F093FC208800B1E6E7204604F023
:10354000A9F8208800B1E0E7204606F07DF9208840
:1035500000B1DAE7204601F09AFF208800B1D4E7F5
:103560002046FFF753FF208800B1CEE7204606F043
:10357000C2FA208800B1C8E7204604F044FB208846
:1035800000B1C2E7204607F01EFA208800B1BCE770
:1035900000F020FEFFF79EFE00BFB6E796480078D9
:1035A000012800D0704793480078FA2800DBF9E73B
:1035B00090480078401C8F49087000BFF2E710B5B2
:1035C00000248D480078012800D010BD00BFFEF710
:1035D000B5FA044600BF8748007828B900BF2046E6
:1035E000FEF7B0FA00BFF0E782480078401E81493C
:1035F000087008460078002805DD00BF2046FEF769
:10360000A1FA00BFE1E77D480078002805DD00BF92
:103610002046FEF797FA00BFD7E702F08FFF7B49FD
:1036200008700846007800EB4000714951F820000E
:10363000744908600846006871490968884205D1E4
:1036400000BF2046FEF77EFA00BFBEE76D48006867
:10365000D0F89000401C6B490968C1F890007D4883
:103660000068401C7B4908604FF080507A49086030
:1036700000BF2046FEF766FA00BF00BFA5E710B501
:1036800000245C480078002800DD10BD5B4800780D
:10369000002800DDF9E700BFFEF750FA044600BF3E
:1036A00002F04CFF594908700846007800EB4000D2
:1036B0004F4951F8200053490860084600685049B6
:1036C0000968884205D100BF2046FEF73BFA00BFDB
:1036D000DBE74C480068D0F89000401C4949096875
:1036E000C1F890005B480068401C5A4908604FF0E0
:1036F00080505949086000BF2046FEF723FA00BFFA
:1037000000BFC2E710B53D480078012803D1FEF79D
:1037100099F84049086010BD70B504460025354849
:103720000078002803DD46F66250208070BD3248E4
:103730000078012803D045F689602080F6E72F48FD
:103740000078FA2803DB45F209202080EEE700BF6D
:1037500000BFFEF7F3F9054600BF00BF2748007819
:10376000401C26490870FFF7CDFF00BF00BF284668
:10377000FEF7E8F900BF00BF0020208000BFD5E7BA
:1037800010B51E48007880B9FEF75CF82149096839
:10379000441A21480068A04201D21F4804601F4813
:1037A0000068A04201D21D48046010BD70B50446F7
:1037B000002510480078002850DD46F6655020802E
:1037C00070BD000068000020CC000020A4C30008E9
:1037D000A0C300089CC3000875432F4F532D4949CF
:1037E000492049646C65205461736B00D82B00201C
:1037F0006C2D00206C0000206D000020B400002023
:103800000C010020100100209A0000209B000020E5
:103810009C000020A8000020AC000020B000002088
:10382000BC000020FCC30008B8000020CCC3000886
:10383000C8C300084C0000205000002054000020A5
:10384000580000205C000020600000206400002080
:10385000EA000020E000002004ED00E0F9480078D4
:10386000012803D045F68960208070BDF6480078B5
:1038700018B946F664502080F7E700BF00BFFEF796
:103880005DF9054600BF00BFEF480078401EEE49D5
:1038900008700846007800280ADD00BF00BF2846EF
:1038A000FEF750F900BF00BF46F663502080DCE70A
:1038B000FFF766FF00BF00BF2846FEF743F900BFD1
:1038C00000BFFFF7DCFE0020208000BFCDE72DE920
:1038D000F04105460C461646002700BF00BFFEF724
:1038E0002DF9074600BF00BF012D03D00020D749A6
:1038F000087002E00120D549087014B1D448046072
:1039000006E0D44800680A21B0FBF1F0D049086015
:1039100000BF00BF3846FEF715F900BF00BF00200A
:103920003080BDE8F08110B501460C8924B1012C2E
:1039300003D0022C0CD101E000BF14E008684A68F3
:1039400002610024C4601461D0600A6048600AE02B
:1039500008684A68C36800241C61C4600261D060C2
:103960000B60486000BF00BF10BD2DE9F041044668
:103970000027B9480078002804DD48F2D1402080B3
:10398000BDE8F081B0480078002803DD46F66350BA
:103990002080F5E7AD480078012803D046F67B107B
:1039A0002080EDE700BF00BFFEF7C8F8074600BF64
:1039B00000BFAA48007800EB4000A94901EB80064F
:1039C000308902280ADA00BF00BF3846FEF7BAF88D
:1039D00000BF00BF46F67A102080D1E73046FFF7DF
:1039E000A2FF3568686D18B999480068A86501E0BC
:1039F000686DA86500BF00BF3846FEF7A3F800BF9A
:103A000000BFFFF73CFE0020208000BFB8E710B5E4
:103A100004468C480078E8B902F090FD914908709E
:103A2000084600788D4908708E48007800EB400009
:103A30008B4951F820008C490860084600688B4982
:103A4000086001207F49087008F006FA43F69920C3
:103A5000208002E045F68A60208010BD01460020EB
:103A6000088047F25C60704730B548B14568C1F8DE
:103A7000C05000F10804226893681D6AC56113E014
:103A800091F83450022D02D0072D08D103E078A51B
:103A9000C1F8C05007E078A5C1F8C05003E079A58F
:103AA000C1F8C05000BF00BF30BDF0B58E6896F8B9
:103AB000375007893FB90127078100274F600F6002
:103AC0000160416023E007897F1C0781026806E0EE
:103AD000946894F83770AF4200DD02E05268002A23
:103AE000F6D100BF32B900274F6043680B605960C0
:103AF00041600CE017682FB9116000270F604A6021
:103B0000016004E013680B604A6059601160F0BD09
:103B100010B5C287016300230AE000244C600C60EA
:103B20000C614C610C83CC61886020315C1CA3B2B9
:103B30009342F2DB10BD2DE9F041054695F83700C0
:103B400000EB4000464901EB80042F69EE6887B91D
:103B500046B9002020812060606095F8370002F0AF
:103B60000FFD0EE02089401E20810020306126607C
:103B700007E02089401E2081FE600EB9676000E0EA
:103B8000376100202861E860BDE8F08138B504465F
:103B90000D4685B16B4602222946204605F0ECFF12
:103BA000BDF8000018B9032084F8360006E00220B2
:103BB00084F8360002E0022084F836002046FFF741
:103BC000BAFF38BD2DE9F04105460C4616461F46A2
:103BD0002648006880F8346000202449096881F88C
:103BE0003500394621480068FFF7D0FF6CB104F179
:103BF0000808EC60012229461C480068FFF788FF8E
:103C000029464046FFF751FF06E0002017490968A2
:103C1000C887164909680863144801682046FFF7F9
:103C200023FFBDE8F08110B50489012C03D10024E5
:103C30000460446033E00C6834BB4A6800241460BC
:103C400002602CE06D000020B4000020BC000020C9
:103C5000B8000020FCC300086C0000209A0000207F
:103C60006C2D00209B000020100100200C01002082
:103C70005461736B205100005461736B2053656D68
:103C800000000000200000004C6824B90B680024EC
:103C90005C60436003E00B684A685A601360048903
:103CA000641E048100244C600C6010BD2DE9F041BD
:103CB0000446256BE68F0AE0D5F80C8008F108076A
:103CC00029463846FFF7AFFF2035701E86B2002E1A
:103CD000F2DC0020E0872063BDE8F08130B50346C8
:103CE000086BCC8F08E0C5689D4202D10361C261B8
:103CF00004E02030651EACB2002CF4DC00BF30BD07
:103D000010B590F8373003EB4303F74C04EB830115
:103D10000B893BB901230B810023C3600361086059
:103D2000486009E00B895B1C0B810B68C3600023B2
:103D300003610A681061086010BD10B590F8373053
:103D400003EB4303E84C04EB83010B893BB90123EC
:103D50000B810023C36003610860486008E00B89A1
:103D60005B1C0B810023C3604A680261D06048601D
:103D700010BD10B5044694F8370002F0F1FB94F83A
:103D80003700DA490978884203D12046FFF7D5FF8A
:103D900002E02046FFF7B4FF10BD10B504462046F0
:103DA00005F07AFD94F8360000F0040010B92046C2
:103DB000FFF7DFFF10BD70B505460C46164694F8B8
:103DC0003600082847D2DFE800F004050809060796
:103DD000272800BF00BF00BF3EE000BF94F83400BA
:103DE000032804D1324621462846FFF777FF0020FA
:103DF000E065A4F86000266415B12046FFF756FF81
:103E00002046FFF7CAFF00203434A0700120607004
:103E1000002004F834091FE000BF94F834000328A0
:103E200004D1324621462846FFF758FF0020E065BE
:103E3000A4F86000266415B12046FFF737FF20463E
:103E400005F02AFD04203434A070012060700020A9
:103E500004F8340900E000BF00BF70BD30B5AFF218
:103E6000DC15C1F8C05000F1080422681AB193684B
:103E70001D6AC56102E0AFF2F415C56130BD2DE9E0
:103E8000F04304460F4684F83770256BB4F83E8043
:103E900013E0D5F80C9009F108063089012807D9FC
:103EA00029463046FFF7BFFE29463046FFF7FDFDA5
:103EB0002035A8F101001FFA80F8B8F1000FE8D111
:103EC000BDE8F083002101604160018170470389F2
:103ED0005B1C038103684B6000230B60026802B126
:103EE000116001600389012B00D14160704730B53A
:103EF0000346086BCC8F08E0C5689D4202D1036180
:103F0000C26104E02030651EACB2002CF4DC00BFBE
:103F100030BD70B506460C46154694F836000828A4
:103F200045D2DFE800F0040508090607262700BF90
:103F300000BF00BF3CE000BF94F83400032804D168
:103F40002A4621463046FFF7D2FF0020E065A4F85C
:103F5000600025642046FFF7A9FE2046FFF71DFFFD
:103F600000203434A07002206070002004F834096E
:103F70001EE000BF94F83400032804D12A462146ED
:103F80003046FFF7B4FF0020E065A4F86000256428
:103F9000204605F081FC2046FFF788FE04203434DB
:103FA000A07002206070002004F8340900E000BF17
:103FB00000BF70BDF0B50446059E086BCD8F0AE0CA
:103FC000C768A74204D1046142610383C66104E06B
:103FD00020306F1EBDB2002DF2DC00BFF0BD2DE918
:103FE000F84306460C4617469846089D94F8360056
:103FF000082850D2DFE800F00405080906072B2C3A
:1040000000BF00BF00BF47E000BF94F834000328A2
:1040100007D143463A46214630460095FFF7CAFF8E
:1040200003E0E765A4F86080256436B12046FFF719
:104030003DFE21463046FFF711FF2046FFF7ADFE5B
:1040400000203434A070607004F8340924E000BF0C
:1040500094F83400032807D143463A4621463046B7
:104060000095FFF7A7FF03E0E765A4F860802564EB
:10407000204605F011FC36B12046FFF717FE214619
:104080003046FFF7EBFE04203434A070002060704F
:1040900004F8340900E000BF00BFBDE8F88310B5A4
:1040A000002400BFFDF74AFD044600BF0020104970
:1040B000087010481049086008460068D0F8900061
:1040C000401C0968C1F890000C480068401C0B496E
:1040D00008604FF080500A49086000BF2046FDF795
:1040E00031FD00BF10BD00006C2D00209A000020A3
:1040F0009B0000209C2C002010010020E0000020EC
:1041000004ED00E070B5054600262E480078012831
:1041100000D070BD00BF00BFFDF710FD064600BF18
:1041200000BF2C683CB900BF00BF3046FDF70AFD58
:1041300000BF00BFEDE72448844207D100BF00BFA5
:104140003046FDF7FFFC00BF00BFE2E7A06D10B1F5
:10415000A06D401EA065A06D38B100BF00BF304605
:10416000FDF7F0FC00BF00BFD3E72889022807DA7B
:1041700000BF00BF3046FDF7E5FC00BF00BFC8E749
:1041800012480078002807DD00BF00BF3046FDF769
:10419000D9FC00BF00BFBCE72846FFF7C4FB2C6872
:1041A000606D18B90A480068A06501E0606DA065FF
:1041B00000BF00BF3046FDF7C5FC00BF00BF00BF19
:1041C000A7E70000BC000020D82B0020B40000208E
:1041D000B800002024482548254826482648274876
:1041E000274828482848294829482A482A482B4847
:1041F0002B482C482C482D482D482E482E482F4817
:104200002F483048304831483148324832483348E6
:1042100033483448344835483548364836483748B6
:10422000374838483848394839483A483A483B4886
:104230003B483C483C483D483D483E483E483F4856
:104240003F48404840484148414842484248434826
:1042500043484448444845484548464846484748F6
:10426000474800BF7047000040C40008A8C50008C8
:1042700042C4000843C4000844C4000848C40008FD
:104280004CC4000849C4000874C4000875C4000880
:1042900076C4000878C400087AC400087CC400080A
:1042A0007EC4000880C40008A0C40008A2C400089E
:1042B000A4C40008A6C40008A8C40008AAC4000832
:1042C000ACC40008D8C40008D9C40008DAC4000887
:1042D000DCC40008DEC40008DFC40008E0C4000835
:1042E000E2C40008E4C40008E6C40008E8C400080A
:1042F000EAC40008ECC400081CC500081DC500087D
:104300001EC500081FC5000820C5000822C50008FA
:1043100024C500084CC500084DC500084EC500085E
:104320004FC5000850C5000852C5000854C5000814
:1043300058C5000859C500085AC500085BC50008E3
:104340005CC500085DC500085EC500085FC50008C3
:1043500060C5000862C5000863C5000864C50008A0
:1043600066C5000868C5000869C500086CC5000876
:10437000A0C50008A1C50008A2C50008A4C5000882
:10438000A6C50008F7A1C16100214161F64909688D
:1043900011B90021816105E0F34909688161F249A1
:1043A00009684861F049086070472DE9F04104460A
:1043B0000E4617461D464FF00008EC4800780028CE
:1043C00004DD42F6E1602880BDE8F0811CB945F6C5
:1043D000C3502880F8E700BF00BF00BFFDF7AEFB69
:1043E000804600BF00BFE2480078401CE0490870EA
:1043F00000BF00BF4046FDF7A5FB00BF00BF00BFE8
:10440000DC482060666027620020606204F10800DA
:10441000FFF758FD2046FFF7B5FFD7480088401C3E
:10442000D549088000BF00BF00BFFDF787FB80466D
:1044300000BF00BFCE480078401ECD49087000BFC5
:1044400000BF4046FDF77EFB00BF00BF00BF00205D
:10445000288000BFB8E770B50446C8482060C8A0EF
:1044600060600020206204F108052846FFF72AFD5D
:1044700070BD426981693AB9BB4B196009B100232B
:104480004B610023836109E019B900239361436103
:1044900004E091614A6100238361436170472DE923
:1044A000FC5F05468846144600200090AF4800781F
:1044B000002805DD43F2C92020800020BDE8FC9FD4
:1044C00025B945F6C35020800020F7E7B8F1000F6A
:1044D00003D0B8F1010F02D100E000BF04E045F6BF
:1044E000256020800020E9E700BFA24928688842B3
:1044F00004D045F6C45020800020DFE700BF00BF95
:1045000000BFFDF71BFB009000BF00BF984800787C
:10451000401C9749087000BF00BF0098FDF712FBD0
:1045200000BF00BF00BF05F10809B9F808603746B1
:10453000B8F1000F03D0B8F1010F6ED16EE07FBB70
:104540002846FFF796FF8C480088401E8A4908805D
:104550002846FFF780FF00BF00BF00BFFDF7EEFA5F
:10456000009000BF00BF82480078401E804908705C
:1045700008460078A8B984480088002809DD00BFF3
:1045800000BF0098FDF7DEFA00BF00BFFFF787FD10
:104590000EE000BF00BF0098FDF7D4FA00BF07E0AF
:1045A0000AE000BF00BF0098FDF7CCFA00BF00BFD3
:1045B00000BF002020802FE000BF00BF00BFFDF73C
:1045C000BDFA009000BF00BF69480078401E6849EE
:1045D000087008460078A0B96B480088002809DDFB
:1045E00000BF00BF0098FDF7ADFA00BF00BFFFF7A6
:1045F00056FD0DE000BF00BF0098FDF7A3FA00BF15
:1046000006E000BF00BF0098FDF79CFA00BF00BFA6
:1046100000BF47F25F10208067E035E0FDF712F938
:1046200001900AE0D9F800A0DAF808B05946284607
:10463000019AFFF76EFC701E86B2002EF2D128465A
:10464000FFF717FF4C480088401E4B49088028465A
:10465000FFF701FF00BF00BF00BFFDF76FFA00903A
:1046600000BF00BF42480078401E4149087000BFAB
:1046700000BF0098FDF766FA00BF00BF00BFFEF75D
:10468000FEFF0020208030E000BF00BF00BFFDF72C
:1046900055FA009000BF00BF35480078401E3449ED
:1046A000087008460078A0B937480088002809DD5E
:1046B00000BF00BF0098FDF745FA00BF00BFFFF73D
:1046C000EEFC0DE000BF00BF0098FDF73BFA00BF15
:1046D00006E000BF00BF0098FDF734FA00BF00BF3E
:1046E00000BF45F62560208000BF00BF3846E5E6E4
:1046F0002DE9F04106460F4614461D46DDF81880A8
:1047000022480068C0F8804020480068A0F888501F
:1047100000201E490968C1F8840043460122394639
:104720003046FFF74FFABDE8F0812DE9F04F8BB02E
:104730000446884693469946DDE9147500200190A9
:104740000A480078002806DD46F2AE1028800020D6
:104750000BB0BDE8F08FDCB945F6C35028800020CF
:10476000F6E7000020000000840000206C0000201C
:10477000B4000020464C4147880000204E4F4E4573
:104780003F464C4147000000780000200C0100200B
:1047900048F20101A9EB0100894536D01ADC40F24C
:1047A0000111A9EB010089452BD00CDCB9F1010FF7
:1047B00023D0B9F1020F21D0B9F1040F1FD0B9F104
:1047C000080F2AD11CE001281CD003281BD0072881
:1047D00023D119E0B0F5807F1BD006DC012815D06D
:1047E000032814D0072818D112E0A0F2011088B1D4
:1047F000022810D0062810D10EE000BF00BF00BF75
:1048000000BF00BF00BF00BF00BF00BF00BF00BFB0
:1048100000BF00BF00BF00BF04E045F62560288050
:10482000002095E700BFF9492068884204D045F68A
:10483000C450288000208BE709F4807010B14FF03D
:10484000010A01E04FF0000A0FB10020386009F0C2
:104850000F000A9000BF00BFFDF770F9019000BF84
:1048600000BF0A9801286ED002286DD0042802D01B
:1048700008286AD16AE0206A00EA0806464517D18E
:10488000BAF1010F02D1206AB0432062E04800680B
:10489000C0F884600FB1606A386000BF00BF019843
:1048A000FDF750F900BF00BF0020288030464FE7D9
:1048B00009F4004058B100BF00BF0198FDF742F96C
:1048C00000BF00BF46F2B0102880002040E7D1486A
:1048D000007800280BDD00BF00BF0198FDF732F91A
:1048E00000BF00BF46F663502880002030E700BFBD
:1048F000C8480078401CC749087000BF00BF019835
:10490000FDF720F900BF00BF00BF4B4642462146DD
:1049100002A8CDF800B0FFF7EBFE00BF00BF00BF5C
:10492000FDF70CF9019000BF00BFBA480078401EA7
:10493000B849087000BF00BF0198FDF703F900BF38
:1049400000BF00BF44E168E0CFE035E1206A00EA43
:104950000806BEB1BAF1010F02D1206AB04320624D
:10496000AB480068C0F884600FB1606A386000BF6F
:1049700000BF0198FDF7E6F800BF00BF00202880C7
:104980003046E5E609F4004058B100BF00BF019889
:10499000FDF7D8F800BF00BF46F2B0102880002015
:1049A000D6E69C48007800280BDD00BF00BF0198C8
:1049B000FDF7C8F800BF00BF46F66350288000200E
:1049C000C6E600BF93480078401C9249087000BFBB
:1049D00000BF0198FDF7B6F800BF00BF00BF4B460F
:1049E0004246214602A8CDF800B0FFF781FE00BF85
:1049F00000BF00BFFDF7A2F8019000BF00BF8548CF
:104A00000078401E8349087000BF00BF0198FDF781
:104A100099F800BF00BF00BFDAE0206A28EA00066C
:104A2000464517D1BAF1010F02D1206A3043206206
:104A300077480068C0F884600FB1606A386000BFD2
:104A400000BF0198FDF77EF800BF00BF002028805E
:104A500030467DE609F4004058B100BF00BF019820
:104A6000FDF770F800BF00BF46F2B01028800020AC
:104A70006EE66848007800280BDD00BF00BF019893
:104A8000FDF760F800BF00BF46F6635028800020A5
:104A90005EE600BF5F480078401C5E49087000BFBA
:104AA00000BF0198FDF74EF800BF00BF00BF4B46A6
:104AB0004246214602A8CDF800B0FFF719FE00BF1C
:104AC00000BF00BFFDF73AF8019000BF00BF51489A
:104AD0000078401E4F49087000BF00BF0198FDF7E5
:104AE00031F800BF00BF00BF72E0206A28EA00066C
:104AF000BEB1BAF1010F02D1206A304320624448AE
:104B00000068C0F884600FB1606A386000BF00BF01
:104B10000198FDF717F800BF00BF0020288030463D
:104B200016E609F4004058B100BF00BF0198FDF738
:104B300009F800BF00BF46F2B0102880002007E649
:104B40003448007800280BDD00BF00BF0198FCF757
:104B5000F9FF00BF00BF46F6635028800020F7E54C
:104B600000BF2C480078401C2A49087000BF00BFD5
:104B70000198FCF7E7FF00BF00BF00BF4B4642466D
:104B8000214602A8CDF800B0FFF7B2FD00BF00BF7C
:104B900000BFFCF7D3FF019000BF00BF1D480078A5
:104BA000401E1C49087000BF00BF0198FCF7CAFFF7
:104BB00000BF00BF00BF0BE000BF00BF0198FCF7C3
:104BC000C1FF00BF00BF45F6256028800020BFE57B
:104BD00000BFFEF754FD00BF00BFFCF7AFFF019020
:104BE00000BF00BF0A48006890F8350030B10128C6
:104BF00012D0022830D003283FD11EE01FB1044854
:104C00000068006C38600020288042E0464C414734
:104C10000C010020B40000201FB1FC480068006CAB
:104C2000386000BF00BF0198FCF78CFF00BF00BFD9
:104C300046F2A910288000208AE50FB100203860D4
:104C400000BF00BF0198FCF77DFF00BF00BF47F227
:104C5000D920288000207BE51FB1EC480068006C5B
:104C6000386000BF00BF0198FCF76CFF00BF00BFB9
:104C700045F6C250288000206AE500BF00BF0198B9
:104C8000FCF760FF00BF00BF46F62E6028800020C2
:104C90005EE500BFDD480068D0F88460BAF1010F1E
:104CA00020D10A9801280BD002280AD0042802D06B
:104CB00008280AD100E000BF206AB043206210E05B
:104CC00000BF206A304320620BE000BF00BF0198A4
:104CD000FCF738FF00BF00BF45F6256028800020A4
:104CE00036E500BF00BF00BF0198FCF72BFF00BFF7
:104CF00000BF0020288030462AE52DE9F05F0546F8
:104D00000E4614464FF0000AC1480078002805DD21
:104D100046F2AA1020800020BDE8F09F25B945F694
:104D2000C35020800020F7E74EB1B6F5807F07D052
:104D3000B6F5004F05D0B6F5014F04D102E000BF33
:104D400000BF00BF04E045F6256020800020E3E7B7
:104D500000BFB0492868884204D045F6C45020807E
:104D60000020D9E700BF00BFFCF7E8FE824600BF85
:104D700000BF05F10807388958B900BF00BF504689
:104D8000FCF7E0FE00BF00BF46F2AB102080002021
:104D9000C2E700BFA0480078401C9F49087000BFD0
:104DA00000BF5046FCF7CEFE00BF00BF00BF4FF073
:104DB0000008FCF747FD83460FE03868D0F80890FC
:104DC0005A4649462846FEF7F6FF08F101001FFA49
:104DD00080F8B6F5807F00D002E038890028ECDC4E
:104DE00000BF00BF00BF00BFFCF7A8FE824600BFA7
:104DF00000BF89480078401E8749087000BF00BF87
:104E00005046FCF79FFE00BF00BF00BF06F4004005
:104E100008B9FEF734FC0020208040467CE770B5DE
:104E2000044600267A480078002804DD46F2AE10D9
:104E30002080002070BD00BF00BFFCF77FFE06464B
:104E400000BF00BF71480068D0F8845000BF00BFA9
:104E50003046FCF777FE00BF00BF002020802846C8
:104E6000E8E770B504460E46154634342665002042
:104E700060702070E560A078343C082816D2DFE826
:104E800000F0040508090706101100BF00BF00BFAD
:104E90000DE000BF2046FEF780FF002084F83600BA
:104EA00005E000BF042084F8360000E000BF00BF2A
:104EB0002046FEF7FBFE70BD2DE9F04F85B004469D
:104EC000894692469B46DDF838800020009000BF5E
:104ED00000BFFCF733FE009000BF00BFBAF1000F27
:104EE0000AD0BAF1010F0DD0BAF5004F05D06FF41A
:104EF0000040504460B906E000BF206A40EA090063
:104F0000206214E000BF206A20EA090020620EE05F
:104F100000BF00BF0098FCF715FE00BF00BF45F6BC
:104F20002560A8F80000002005B0BDE8F08F00BFA4
:104F3000C4F824B004F1080001900198008958B920
:104F400000BF00BF0098FCF7FDFD00BF00BF0020C0
:104F5000A8F80000206AE7E700BF2F480078401C4F
:104F60002D49087000BF00BF0098FCF7EBFD00BFA3
:104F700000BF00BF01980768BD6888E078680290AC
:104F800095F8880000F00F0003900398012821D0C5
:104F900002282ED0042802D008283FD10EE0206A33
:104FA000D5F8801000EA0106D5F88000B04204D19F
:104FB0005A4631462846FFF754FF62E0206AD5F88A
:104FC000801000EA010626B15A4631462846FFF70E
:104FD00048FF56E0D5F88000216A20EA0106D5F89E
:104FE0008000B04204D15A4631462846FFF739FFC7
:104FF00047E0D5F88000216A20EA010626B15A462A
:1050000031462846FFF72DFF3BE000000C01002051
:105010006C000020464C4147B400002000BF00BF98
:1050200000BFFCF78BFD009000BF00BF594800781F
:10503000401E5849087008460078A0B956480088B4
:10504000002809DD00BF00BF0098FCF77BFD00BF12
:1050500000BFFFF724F80DE000BF00BF0098FCF789
:1050600071FD00BF06E000BF00BF0098FCF76AFDBD
:1050700000BF00BF00BF43F6FF20A8F800000020DB
:1050800052E700BF029F0FB1BD6800E00025002D70
:105090007FF474AF00BF00BF00BFFCF74FFD00906E
:1050A00000BF00BF3B480078401E3A49087000BF6F
:1050B00000BF0098FCF746FD00BF00BF00BF0AF428
:1050C000004008B9FEF7DBFA00BF00BFFCF736FD71
:1050D000009000BF00BF206A049000BF00BF00988E
:1050E000FCF730FD00BF00BF0020A8F800000498C6
:1050F0001AE72DE9FF470546884617461C4635B98D
:1051000045F6C3502080002004B0BDE8F0874FB1C1
:10511000012F08D0B7F5004F06D06FF40040384497
:1051200020B902E000BF00BF00BF04E045F62560E3
:1051300020800020E8E700BF18492868884204D092
:1051400045F6C45020800020DEE7FCF77BFB0646D6
:105150001348007800280BDD00231A4629460F4823
:10516000CDE90087CDE9026400F020F80020CBE70C
:1051700033463A46414628460094FFF79DFE814655
:105180004846C1E70021074A1160074A11800180A3
:1051900070470000B400002078000020464C4147D2
:1051A0006C00002084000020880000202DE9F84FCA
:1051B00004460D4616461F46DDE90BABDDF8289088
:1051C000DDF834800020009000BF00BFFCF7B6FC83
:1051D000009000BF00BFE2480088E2490988884289
:1051E0003EDADF480088401CDD490880DE48008840
:1051F0000988884203DADA480088DB490880DB48FE
:1052000000680460D94800688560D8480068C660B6
:10521000D64800680782D5480068C0F81490D34883
:105220000068A0F818A0D1480068C0F81CB0CF48AA
:1052300000684068CD4908600120CD490881CD480B
:1052400008604860002001F08BF9CB48007818B165
:10525000C9480078C94908700020A8F8000008E093
:10526000C7480088401CC649088044F25360A8F82B
:10527000000000BF00BF0098FCF764FC00BF00BF47
:10528000BDE8F88F3EB5BF4800680068BE4A811A85
:10529000904279D00FDCBD49084400283ED0BC497B
:1052A0000844A8B1BB490844002860D0BA49084462
:1052B00000286AD13FE0B9480844002850D0B849D6
:1052C0000844002862D0B74908440028F1D110E012
:1052D00002A8AC4D00902D68EB69AA4D2D682A8B71
:1052E000A84D2D686969A74D2D68A868FFF7E4FDF2
:1052F0007AE002A9A3480068C069A24DCDE9000187
:105300002D682B8B9F4D2D682A8A9E4D2D68E9684C
:105310009C4D2D68A86801F09CFC65E0994B1B68CA
:10532000DA69984B1B68198B964B1B68986802AB1F
:1053300002F074F858E002A992480068C069914DE3
:10534000CDE900012D682B8B8E4D2D682A8A8D4D5D
:105350002D68E9688B4D2D68A86803F026FA43E0B4
:1053600088490968886802A903F0D7FB3CE0854BAF
:105370001B68DA69834B1B68198B824B1B68986822
:1053800002AB03F039FE2FE007E02CE07D4909680D
:10539000886802A904F05DF926E07849097801EBF4
:1053A0004101734A02EB8100FEF7ACFE75480068CC
:1053B00002AB0021C2697C4803F01EFE7B480068F6
:1053C000401E7A4908600846006858B97848006865
:1053D0000860FCF737FA044602AB22460021754804
:1053E00003F00AFE00E000BF00BF3EBD002700BF83
:1053F0004CE0002648E000BF00BFFCF79FFB0746DB
:1054000000BF00BF5648008888B90020584908816D
:105410000860486001F0B4F800BF00BF3846FCF7F0
:1054200091FB00BF00BFFEF72AF901262CE000BF68
:1054300000BF3846FCF786FB00BF00BFFCF702FA4E
:105440000546FFF71FFFFCF7FDF9441B5A480068AB
:10545000A04201D25848046000BF00BFFCF76EFBB9
:10546000074600BF00BF47480068406845490860DC
:105470003B480088401E3A49088000BF00BF3846BC
:10548000FCF760FB00BF00BF002EB4D0B1E7F0B561
:1054900089B0054600203A4908804848006820B98C
:1054A00044F25260288009B0F0BD2E4800880228DE
:1054B00003DA44F254602880F5E700203E49086092
:1054C0003E4804682646203600270CE03C48206011
:1054D0000020A060E060208260612083666020344C
:1054E0002036781C87B21F4800888742EEDB203CBC
:1054F0003248066866601D48066022480660002043
:1055000017490880184908802E48006818B944F2E5
:1055100055602880C7E72C4800682C4909688842F4
:1055200003D244F256602880BDE703200021059194
:10553000CDE90705069124480068254A1268214BE9
:105540001B68CDE90301CDE9013200910B46AFF2B2
:10555000631220A1074802F007FD00BFA3E7000087
:1055600078000020B0C300087A00002070000020FE
:105570006C2D00209C2C00209A0000209C00002014
:105580007C000020740000205449434BADBAB2BEE9
:105590000DF90BFAF2F8F7FF0006F6FF00F7FDF73A
:1055A00000FFEFFF03FE0FFE303100200801002056
:1055B00004010020F431002080000020ACC300086A
:1055C0004E4F4E45B8C30008C0C30008F8C30008DA
:1055D000BCC3000875432F4F532D494949204953F7
:1055E00052205175657565205461736B0000000091
:1055F000002181618749096811B90021C16105E075
:1056000084490968C16183490968886181490860E2
:1056100070472DE9FF4F83B0044615461F46DDE96C
:105620001096002000907C480078002805DD45F2A7
:10563000B960308007B0BDE8F08F1DB945F2BB609E
:105640003080F7E7022F03DA45F2BC603080F1E7E3
:10565000B9F1040F03D245F2C1603080EAE74FF0A0
:10566000030ABAF1000F0DD005EA0A0018B145F29D
:10567000BB603080DEE709EA0A0018B145F2C1607C
:105680003080D7E7AB46A846781E80B20190002054
:10569000029007E0C844CBF80080C3460298401C43
:1056A00080B20290DDE901108842F3DB0020CBF8E4
:1056B000000000BF00BF00BFFCF740FA009000BF31
:1056C00000BF56480078401C5449087000BF00BF16
:1056D0000098FCF737FA00BF00BF00BF50482060B9
:1056E0000498A0606560E560A7826782A4F81090C6
:1056F0002046FFF77DFF4B480088401C4949088041
:1057000000BF00BF00BFFCF719FA009000BF00BF48
:1057100042480078401E4149087000BF00BF009811
:10572000FCF710FA00BF00BF00BF0020308000BFB0
:1057300080E72DE9F04104460D4600272CB945F2DB
:10574000BF6028800020BDE8F08100BF00BFFCF7EB
:10575000F5F9074600BF00BFA08A58B900BF00BFD7
:105760003846FCF7EFF900BF00BF45F2C260288061
:105770000020E8E7E6683068E060A08A401EA0826A
:1057800000BF00BF3846FCF7DDF900BF00BF0020B6
:1057900028803046D7E72DE9F04104460E461546ED
:1057A000002724B945F2BF602880BDE8F0811EB90A
:1057B00045F2BE602880F8E700BF00BFFCF7BEF9E5
:1057C000074600BF00BFA08A618A88420ADB00BF8B
:1057D00000BF3846FCF7B6F900BF00BF45F2BA601B
:1057E0002880E2E7E0683060E660A08A401CA08282
:1057F00000BF00BF3846FCF7A5F900BF00BF00207E
:10580000288000BFD1E70021024A1160054A1180BB
:10581000018070478C0000206C000020B400002044
:105820004D454D209000002070B502460B461046B5
:10583000114610315E1EB5B2002408E0016000265A
:1058400046600681C66010301031661CB4B2AC42AE
:10585000F4DB0026066046600681C66070BD10B5A8
:1058600004467948006818B945F21E70208010BDC2
:105870007648008818B945F21D702080F7E7734814
:10588000018871480068FFF7CFFF6F4800687049D2
:1058900008606E48008888800020C88008812080C9
:1058A00000BFE4E710B5014648894B89002B17DD9E
:1058B0000A68674B1B681360654C4B68236023467E
:1058C000DB884C891B1B624CE38023469B884C89F8
:1058D00023445F4CA38000234B818B810B604B6082
:1058E00010BD0181002242818281026042607047C6
:1058F000F0B504460D46608940B90020288002B109
:10590000106046F2925018800020F0BD61684E6829
:10591000088928800AB1C8681060086860606068FB
:1059200018B900202060608102E06089401E60811B
:10593000474800680860464801608088401C444F22
:10594000B8803846C088401EF88000201880304655
:10595000DBE72DE9F0410D46DDE90674B0F80AC039
:10596000B0F80880C44505DB46F2935CA4F800C09B
:10597000BDE8F081DFF8D8C0BCF804C0BCF1000F6E
:1059800004D145F21D7CA4F800C0F1E7DFF8C0C0E7
:10599000DCF80010DFF8B880D1F800C0C8F800C00B
:1059A000C446BCF804C0ACF1010CA8F804C0C4465D
:1059B000BCF806C00CF1010CA8F806C0C446BCF83F
:1059C00008C0B8F80680C44507DADFF884C0BCF820
:1059D00006C0DFF87C80A8F808C0B0F80AC0BCF1A7
:1059E000000F06D1016041604FF0010CA0F80AC021
:1059F00017E003F0100CBCF1000F07D1066831600E
:105A00004FF0000CC1F800C0016004E0D0F804C001
:105A1000C1F800C04160B0F80AC00CF1010CA0F858
:105A20000AC0B0F80CC0B0F80A80C44503DAB0F878
:105A30000AC0A0F80CC04D600A81CF604FF0000C86
:105A4000A4F800C000BF93E7DCC30008D4C300087B
:105A5000602D0020F8A1C16100214161F74909686A
:105A600011B90021816105E0F44909688161F349B8
:105A700009684861F149086070472DE9F041044622
:105A80000E4615460027EE480078002804DD42F651
:105A9000E1602880BDE8F0811CB945F6C35028803C
:105AA000F8E700BF00BF00BFFCF748F8074600BF9B
:105AB00000BFE4480078401CE249087000BF00BF06
:105AC0003846FCF73FF800BF00BF00BFDE4820604B
:105AD00066600020206284F82500A062402084F8DF
